:1000000000308A0038280000831A0A28A400030E52
:10001000A5000F288312A400030EA500A5140A084A
:10002000AB008A018313A40E0408A6002008A700D1
:100030002108A8002208A9002308AA0083128C30F6
:100040008400001C25280C183E2826088400270858
:10005000A0002808A1002908A2002A08A3002B0854
:100060008A00250E83008312240EA518831609002A
:10007000FF238316900000308A0057280F08A30042
:100080000E08A0000F082302031D3E282008003C94
:10009000AC00E030AD002308031C230FAD028E013D
:1000A0002D088F002C088E000C108A1125280308BB
:1000B0001F39830007309900053090008E01E03031
:1000C0008F008E0183160C1407308312990083165B
:1000D0000508850002308312A000A00B6D2870284F
:0E00E000000019088C11C0308B0475286300D5
:02400E00CC3FA5
:00000001FF
;PIC12F629
;CRC=64B2  CREATED="14-jan-20 16:01"
